:060000000A128A11FC2F18
:100F44003830831603138600880107308312031395
:100F540086008801831603138113F001073083127E
:100F6400860006108619B72FB82FBB2FF001F00AA0
:100F7400C82F061ABE2FBF2FC22F0230F000C82F71
:100F8400861AC52FC62FC82F0330F00007308600FD
:100F940086108619CE2FCF2FD22F0430F000DF2FEA
:100FA400061AD52FD62FD92F0530F000DF2F861A39
:100FB400DC2FDD2FDF2F0630F0000730860006110E
:100FC4008619E52FE62FE92F0730F000F62F061AD1
:100FD400EC2FED2FF02F0830F000F62F861AF32FA8
:100FE400F42FF62F0930F00070088800B02F0A1291
:0C0FF4008A11002883010A128A11A22F22
:00000001FF
