:060000000A128A11EE2F26
:100F10000E34163426342534233413340B340D3474
:100F20007E088A007F0882000A128A1190270A121E
:100F30008A118000840A04087D0603190034FF0A20
:100F40000319FE0A942F83160313860183120313D9
:100F50008601831603138113743084002030F0005F
:100F60000408F1000830F2007008840083130008C0
:100F7000F300F00A7108840073088000F10AF20B94
:100F8000B42FFC01FD017C08743E8400000883122C
:100F9000031386000630F2001330F100AD30F0008C
:100FA000F00BD02FF10BD02FF20BD02FD72F013019
:100FB000FC070318FD0A0030FD077D08803AFF009A
:100FC00080307F02031DE62F08307C02031CE92FCE
:100FD000EA2FC32FC12F0A128A1100288313283049
:100FE000FD000730FE008830FF00203084000A1228
:100FF0008A1194270A128A1183010A128A11A32FD7
:00000001FF
